{
  "address": "0x17f238a671CEEa5b6ac9b44E280a42a2Bb080feC",
  "abi": [
    {
      "inputs": [],
      "stateMutability": "nonpayable",
      "type": "constructor"
    },
    {
      "anonymous": false,
      "inputs": [
        {
          "indexed": true,
          "internalType": "string",
          "name": "roomId",
          "type": "string"
        },
        {
          "indexed": true,
          "internalType": "address",
          "name": "creator",
          "type": "address"
        }
      ],
      "name": "GameCancelled",
      "type": "event"
    },
    {
      "anonymous": false,
      "inputs": [
        {
          "indexed": true,
          "internalType": "string",
          "name": "roomId",
          "type": "string"
        },
        {
          "indexed": true,
          "internalType": "address",
          "name": "creator",
          "type": "address"
        }
      ],
      "name": "GameCreated",
      "type": "event"
    },
    {
      "anonymous": false,
      "inputs": [
        {
          "indexed": true,
          "internalType": "string",
          "name": "roomId",
          "type": "string"
        },
        {
          "indexed": true,
          "internalType": "address",
          "name": "joiner",
          "type": "address"
        }
      ],
      "name": "GameJoined",
      "type": "event"
    },
    {
      "anonymous": false,
      "inputs": [
        {
          "indexed": true,
          "internalType": "string",
          "name": "roomId",
          "type": "string"
        },
        {
          "indexed": true,
          "internalType": "address",
          "name": "winner",
          "type": "address"
        },
        {
          "indexed": false,
          "internalType": "uint256",
          "name": "matchNumber",
          "type": "uint256"
        }
      ],
      "name": "MatchFinished",
      "type": "event"
    },
    {
      "inputs": [],
      "name": "backend",
      "outputs": [
        {
          "internalType": "address",
          "name": "",
          "type": "address"
        }
      ],
      "stateMutability": "view",
      "type": "function"
    },
    {
      "inputs": [
        {
          "internalType": "string",
          "name": "roomId",
          "type": "string"
        }
      ],
      "name": "cancelGame",
      "outputs": [],
      "stateMutability": "nonpayable",
      "type": "function"
    },
    {
      "inputs": [
        {
          "internalType": "string",
          "name": "roomId",
          "type": "string"
        }
      ],
      "name": "createGame",
      "outputs": [],
      "stateMutability": "nonpayable",
      "type": "function"
    },
    {
      "inputs": [
        {
          "internalType": "string",
          "name": "",
          "type": "string"
        }
      ],
      "name": "games",
      "outputs": [
        {
          "internalType": "address",
          "name": "player1",
          "type": "address"
        },
        {
          "internalType": "address",
          "name": "player2",
          "type": "address"
        },
        {
          "internalType": "enum RPSOnline.GameState",
          "name": "state",
          "type": "uint8"
        },
        {
          "internalType": "uint256",
          "name": "createdAt",
          "type": "uint256"
        }
      ],
      "stateMutability": "view",
      "type": "function"
    },
    {
      "inputs": [
        {
          "internalType": "string",
          "name": "roomId",
          "type": "string"
        }
      ],
      "name": "getGame",
      "outputs": [
        {
          "components": [
            {
              "internalType": "address",
              "name": "player1",
              "type": "address"
            },
            {
              "internalType": "address",
              "name": "player2",
              "type": "address"
            },
            {
              "internalType": "enum RPSOnline.GameState",
              "name": "state",
              "type": "uint8"
            },
            {
              "internalType": "uint256",
              "name": "createdAt",
              "type": "uint256"
            },
            {
              "components": [
                {
                  "internalType": "address",
                  "name": "winner",
                  "type": "address"
                },
                {
                  "internalType": "string",
                  "name": "player1Move",
                  "type": "string"
                },
                {
                  "internalType": "string",
                  "name": "player2Move",
                  "type": "string"
                },
                {
                  "internalType": "uint256",
                  "name": "timestamp",
                  "type": "uint256"
                }
              ],
              "internalType": "struct RPSOnline.Match[]",
              "name": "matches",
              "type": "tuple[]"
            }
          ],
          "internalType": "struct RPSOnline.Game",
          "name": "",
          "type": "tuple"
        }
      ],
      "stateMutability": "view",
      "type": "function"
    },
    {
      "inputs": [
        {
          "internalType": "string",
          "name": "roomId",
          "type": "string"
        }
      ],
      "name": "getMatchHistory",
      "outputs": [
        {
          "components": [
            {
              "internalType": "address",
              "name": "winner",
              "type": "address"
            },
            {
              "internalType": "string",
              "name": "player1Move",
              "type": "string"
            },
            {
              "internalType": "string",
              "name": "player2Move",
              "type": "string"
            },
            {
              "internalType": "uint256",
              "name": "timestamp",
              "type": "uint256"
            }
          ],
          "internalType": "struct RPSOnline.Match[]",
          "name": "",
          "type": "tuple[]"
        }
      ],
      "stateMutability": "view",
      "type": "function"
    },
    {
      "inputs": [
        {
          "internalType": "string",
          "name": "roomId",
          "type": "string"
        }
      ],
      "name": "getRoomStats",
      "outputs": [
        {
          "internalType": "uint256",
          "name": "totalMatches",
          "type": "uint256"
        },
        {
          "internalType": "address",
          "name": "player1",
          "type": "address"
        },
        {
          "internalType": "address",
          "name": "player2",
          "type": "address"
        }
      ],
      "stateMutability": "view",
      "type": "function"
    },
    {
      "inputs": [
        {
          "internalType": "string",
          "name": "roomId",
          "type": "string"
        }
      ],
      "name": "isRoomAvailable",
      "outputs": [
        {
          "internalType": "bool",
          "name": "",
          "type": "bool"
        }
      ],
      "stateMutability": "view",
      "type": "function"
    },
    {
      "inputs": [
        {
          "internalType": "string",
          "name": "roomId",
          "type": "string"
        }
      ],
      "name": "joinGame",
      "outputs": [],
      "stateMutability": "nonpayable",
      "type": "function"
    },
    {
      "inputs": [
        {
          "internalType": "string",
          "name": "roomId",
          "type": "string"
        },
        {
          "internalType": "address",
          "name": "winner",
          "type": "address"
        },
        {
          "internalType": "string",
          "name": "player1Move",
          "type": "string"
        },
        {
          "internalType": "string",
          "name": "player2Move",
          "type": "string"
        }
      ],
      "name": "publishMatch",
      "outputs": [],
      "stateMutability": "nonpayable",
      "type": "function"
    }
  ],
  "transactionHash": "0x2548590ce0ace27d1d003f5b3f647c1fc4a2bf63c6b63a9432f73fe1d4b6bd75",
  "args": [],
  "numDeployments": 2,
  "solcInputHash": "ae12ad677ce4b8f555f66a6156ed610a",
  "bytecode": "0x608060405234801561001057600080fd5b50600080546001600160a01b03191633179055611359806100326000396000f3fe608060405234801561001057600080fd5b506004361061009e5760003560e01c80633d536a2e116100665780633d536a2e1461013e5780633f62a41d146101515780634d92f652146101895780636d20931a146101a9578063ee2a03c11461020f57600080fd5b8063091c680b146100a3578063099e4133146100cb578063239a6a09146100f65780632ccce58a146101165780632ebc05041461012b575b600080fd5b6100b66100b1366004610f12565b610222565b60405190151581526020015b60405180910390f35b6000546100de906001600160a01b031681565b6040516001600160a01b0390911681526020016100c2565b610109610104366004610f12565b61029d565b6040516100c2919061103e565b610129610124366004610f12565b610461565b005b610129610139366004610f12565b610629565b61012961014c366004610f12565b61072e565b61016461015f366004610f12565b610912565b604080519384526001600160a01b0392831660208501529116908201526060016100c2565b61019c610197366004610f12565b61095f565b6040516100c29190611089565b6101ff6101b7366004610f12565b8051602081830181018051600180835293830192909401919091209290528154908201546002909201546001600160a01b039182169291821691600160a01b900460ff169084565b6040516100c294939291906110e1565b61012961021d366004611115565b610bbf565b60008060018360405161023591906111be565b90815260405190819003602001902080549091506001600160a01b03161580159061026b575060018101546001600160a01b0316155b8015610296575060006001820154600160a01b900460ff16600281111561029457610294611051565b145b9392505050565b60606001826040516102af91906111be565b9081526020016040518091039020600301805480602002602001604051908101604052809291908181526020016000905b8282101561045657600084815260209081902060408051608081019091526004850290910180546001600160a01b031682526001810180549293919291840191610329906111da565b80601f0160208091040260200160405190810160405280929190818152602001828054610355906111da565b80156103a25780601f10610377576101008083540402835291602001916103a2565b820191906000526020600020905b81548152906001019060200180831161038557829003601f168201915b505050505081526020016002820180546103bb906111da565b80601f01602080910402602001604051908101604052809291908181526020018280546103e7906111da565b80156104345780601f1061040957610100808354040283529160200191610434565b820191906000526020600020905b81548152906001019060200180831161041757829003601f168201915b50505050508152602001600382015481525050815260200190600101906102e0565b505050509050919050565b600060018260405161047391906111be565b90815260405190819003602001902080549091506001600160a01b031633146104d55760405162461bcd60e51b815260206004820152600f60248201526e2737ba103a34329031b932b0ba37b960891b60448201526064015b60405180910390fd5b60006001820154600160a01b900460ff1660028111156104f7576104f7611051565b1461053b5760405162461bcd60e51b815260206004820152601460248201527311d85b5948185b1c9958591e481cdd185c9d195960621b60448201526064016104cc565b60018101546001600160a01b03161561058e5760405162461bcd60e51b8152602060048201526015602482015274141b185e595c88185b1c9958591e481a9bda5b9959605a1b60448201526064016104cc565b60018260405161059e91906111be565b90815260405190819003602001902080546001600160a01b03191681556001810180546001600160a81b03191690556000600282018190556105e36003830182610dba565b505060405133906105f59084906111be565b604051908190038120907f7ff238c23efbc565b1260e8544189ea4857dd8c962b68f0dba39aed0b194165390600090a35050565b60006001600160a01b031660018260405161064491906111be565b908152604051908190036020019020546001600160a01b0316146106a05760405162461bcd60e51b8152602060048201526013602482015272526f6f6d20616c72656164792065786973747360681b60448201526064016104cc565b60006001826040516106b291906111be565b90815260405190819003602001812080546001600160a01b0319163390811782556001820180546001600160a81b0319169055426002830155909250906106fa9084906111be565b604051908190038120907fac707a3f26c90292ba0efc38489e4d1f6feb1e99176a84573a02232af25aa08090600090a35050565b600060018260405161074091906111be565b90815260405190819003602001902080549091506001600160a01b031661079f5760405162461bcd60e51b8152602060048201526013602482015272149bdbdb48191bd95cc81b9bdd08195e1a5cdd606a1b60448201526064016104cc565b60018101546001600160a01b0316156107e95760405162461bcd60e51b815260206004820152600c60248201526b149bdbdb481a5cc8199d5b1b60a21b60448201526064016104cc565b8054336001600160a01b03909116036108445760405162461bcd60e51b815260206004820152601960248201527f43616e6e6f74206a6f696e20796f7572206f776e20726f6f6d0000000000000060448201526064016104cc565b60006001820154600160a01b900460ff16600281111561086657610866611051565b146108a85760405162461bcd60e51b815260206004820152601260248201527147616d65206e6f7420617661696c61626c6560701b60448201526064016104cc565b6001810180543360ff60a01b1981166001600160a81b031990921691909117600160a01b179091556040516108de9084906111be565b604051908190038120907f69b91453edfa045ed34feb2b032d08b6c3333ec2404f18b285c7ce7ffe69ba5190600090a35050565b60008060008060018560405161092891906111be565b908152604051908190036020019020600381015481546001909201549095506001600160a01b039182169450169150509193909250565b6109916040805160a0810182526000808252602082018190529091820190815260200160008152602001606081525090565b6001826040516109a191906111be565b90815260408051918290036020908101832060a08401835280546001600160a01b0390811685526001820154908116928501929092529183019060ff600160a01b9091041660028111156109f7576109f7611051565b6002811115610a0857610a08611051565b81526020016002820154815260200160038201805480602002602001604051908101604052809291908181526020016000905b82821015610bb157600084815260209081902060408051608081019091526004850290910180546001600160a01b031682526001810180549293919291840191610a84906111da565b80601f0160208091040260200160405190810160405280929190818152602001828054610ab0906111da565b8015610afd5780601f10610ad257610100808354040283529160200191610afd565b820191906000526020600020905b815481529060010190602001808311610ae057829003601f168201915b50505050508152602001600282018054610b16906111da565b80601f0160208091040260200160405190810160405280929190818152602001828054610b42906111da565b8015610b8f5780601f10610b6457610100808354040283529160200191610b8f565b820191906000526020600020905b815481529060010190602001808311610b7257829003601f168201915b5050505050815260200160038201548152505081526020019060010190610a3b565b505050915250909392505050565b6000600185604051610bd191906111be565b90815260405190819003602001902080549091506001600160a01b0316331480610c07575060018101546001600160a01b031633145b610c425760405162461bcd60e51b815260206004820152600c60248201526b2737ba103090383630bcb2b960a11b60448201526064016104cc565b600180820154600160a01b900460ff166002811115610c6357610c63611051565b1480610c8e575060026001820154600160a01b900460ff166002811115610c8c57610c8c611051565b145b610ccb5760405162461bcd60e51b815260206004820152600e60248201526d47616d65206e6f7420726561647960901b60448201526064016104cc565b604080516080810182526001600160a01b038681168252602080830187815293830186905242606084015260038501805460018082018355600092835292909120845160049092020180546001600160a01b0319169190931617825592519192909190820190610d3b9082611263565b5060408201516002820190610d509082611263565b50606082015181600301555050836001600160a01b031685604051610d7591906111be565b60405190819003812060038401548252907f5debdf5c3bd943cd3587df9cea860f45c04c5d8537d08d6cfcbd94881f92c4cf9060200160405180910390a35050505050565b5080546000825560040290600052602060002090810190610ddb9190610dde565b50565b80821115610e215780546001600160a01b03191681556000610e036001830182610e25565b610e11600283016000610e25565b5060006003820155600401610dde565b5090565b508054610e31906111da565b6000825580601f10610e41575050565b601f016020900490600052602060002090810190610ddb91905b80821115610e215760008155600101610e5b565b634e487b7160e01b600052604160045260246000fd5b600082601f830112610e9657600080fd5b813567ffffffffffffffff80821115610eb157610eb1610e6f565b604051601f8301601f19908116603f01168101908282118183101715610ed957610ed9610e6f565b81604052838152866020858801011115610ef257600080fd5b836020870160208301376000602085830101528094505050505092915050565b600060208284031215610f2457600080fd5b813567ffffffffffffffff811115610f3b57600080fd5b610f4784828501610e85565b949350505050565b60005b83811015610f6a578181015183820152602001610f52565b50506000910152565b60008151808452610f8b816020860160208601610f4f565b601f01601f19169290920160200192915050565b600082825180855260208086019550808260051b84010181860160005b8481101561103157858303601f19018952815180516001600160a01b0316845284810151608086860181905290610ff582870182610f73565b9150506040808301518683038288015261100f8382610f73565b6060948501519790940196909652505098840198925090830190600101610fbc565b5090979650505050505050565b6020815260006102966020830184610f9f565b634e487b7160e01b600052602160045260246000fd5b6003811061108557634e487b7160e01b600052602160045260246000fd5b9052565b60208152600060018060a01b038084511660208401528060208501511660408401525060408301516110be6060840182611067565b5060608301516080830152608083015160a080840152610f4760c0840182610f9f565b6001600160a01b03858116825284166020820152608081016111066040830185611067565b82606083015295945050505050565b6000806000806080858703121561112b57600080fd5b843567ffffffffffffffff8082111561114357600080fd5b61114f88838901610e85565b9550602087013591506001600160a01b038216821461116d57600080fd5b9093506040860135908082111561118357600080fd5b61118f88838901610e85565b935060608701359150808211156111a557600080fd5b506111b287828801610e85565b91505092959194509250565b600082516111d0818460208701610f4f565b9190910192915050565b600181811c908216806111ee57607f821691505b60208210810361120e57634e487b7160e01b600052602260045260246000fd5b50919050565b601f82111561125e57600081815260208120601f850160051c8101602086101561123b5750805b601f850160051c820191505b8181101561125a57828155600101611247565b5050505b505050565b815167ffffffffffffffff81111561127d5761127d610e6f565b6112918161128b84546111da565b84611214565b602080601f8311600181146112c657600084156112ae5750858301515b600019600386901b1c1916600185901b17855561125a565b600085815260208120601f198616915b828110156112f5578886015182559484019460019091019084016112d6565b50858210156113135787850151600019600388901b60f8161c191681555b5050505050600190811b0190555056fea26469706673582212209f298ecfcd3fc6cb7d8120b00913d180a0c0a246fcb4fae8e0d0ed308cb4c3a164736f6c63430008140033",
  "devdoc": {
    "kind": "dev",
    "methods": {},
    "version": 1
  },
  "userdoc": {
    "kind": "user",
    "methods": {},
    "version": 1
  },
  "storageLayout": {
    "storage": [
      {
        "astId": 30,
        "contract": "contracts/RPSOnline.sol:RPSOnline",
        "label": "backend",
        "offset": 0,
        "slot": "0",
        "type": "t_address"
      },
      {
        "astId": 35,
        "contract": "contracts/RPSOnline.sol:RPSOnline",
        "label": "games",
        "offset": 0,
        "slot": "1",
        "type": "t_mapping(t_string_memory_ptr,t_struct(Game)28_storage)"
      }
    ],
    "types": {
      "t_address": {
        "encoding": "inplace",
        "label": "address",
        "numberOfBytes": "20"
      },
      "t_array(t_struct(Match)14_storage)dyn_storage": {
        "base": "t_struct(Match)14_storage",
        "encoding": "dynamic_array",
        "label": "struct RPSOnline.Match[]",
        "numberOfBytes": "32"
      },
      "t_enum(GameState)5": {
        "encoding": "inplace",
        "label": "enum RPSOnline.GameState",
        "numberOfBytes": "1"
      },
      "t_mapping(t_string_memory_ptr,t_struct(Game)28_storage)": {
        "encoding": "mapping",
        "key": "t_string_memory_ptr",
        "label": "mapping(string => struct RPSOnline.Game)",
        "numberOfBytes": "32",
        "value": "t_struct(Game)28_storage"
      },
      "t_string_memory_ptr": {
        "encoding": "bytes",
        "label": "string",
        "numberOfBytes": "32"
      },
      "t_string_storage": {
        "encoding": "bytes",
        "label": "string",
        "numberOfBytes": "32"
      },
      "t_struct(Game)28_storage": {
        "encoding": "inplace",
        "label": "struct RPSOnline.Game",
        "members": [
          {
            "astId": 16,
            "contract": "contracts/RPSOnline.sol:RPSOnline",
            "label": "player1",
            "offset": 0,
            "slot": "0",
            "type": "t_address"
          },
          {
            "astId": 18,
            "contract": "contracts/RPSOnline.sol:RPSOnline",
            "label": "player2",
            "offset": 0,
            "slot": "1",
            "type": "t_address"
          },
          {
            "astId": 21,
            "contract": "contracts/RPSOnline.sol:RPSOnline",
            "label": "state",
            "offset": 20,
            "slot": "1",
            "type": "t_enum(GameState)5"
          },
          {
            "astId": 23,
            "contract": "contracts/RPSOnline.sol:RPSOnline",
            "label": "createdAt",
            "offset": 0,
            "slot": "2",
            "type": "t_uint256"
          },
          {
            "astId": 27,
            "contract": "contracts/RPSOnline.sol:RPSOnline",
            "label": "matches",
            "offset": 0,
            "slot": "3",
            "type": "t_array(t_struct(Match)14_storage)dyn_storage"
          }
        ],
        "numberOfBytes": "128"
      },
      "t_struct(Match)14_storage": {
        "encoding": "inplace",
        "label": "struct RPSOnline.Match",
        "members": [
          {
            "astId": 7,
            "contract": "contracts/RPSOnline.sol:RPSOnline",
            "label": "winner",
            "offset": 0,
            "slot": "0",
            "type": "t_address"
          },
          {
            "astId": 9,
            "contract": "contracts/RPSOnline.sol:RPSOnline",
            "label": "player1Move",
            "offset": 0,
            "slot": "1",
            "type": "t_string_storage"
          },
          {
            "astId": 11,
            "contract": "contracts/RPSOnline.sol:RPSOnline",
            "label": "player2Move",
            "offset": 0,
            "slot": "2",
            "type": "t_string_storage"
          },
          {
            "astId": 13,
            "contract": "contracts/RPSOnline.sol:RPSOnline",
            "label": "timestamp",
            "offset": 0,
            "slot": "3",
            "type": "t_uint256"
          }
        ],
        "numberOfBytes": "128"
      },
      "t_uint256": {
        "encoding": "inplace",
        "label": "uint256",
        "numberOfBytes": "32"
      }
    }
  }
}