{
  "address": "0x9f7058de37eE38F7bF20f93e9959C22ACB002e48",
  "abi": [
    {
      "inputs": [],
      "stateMutability": "nonpayable",
      "type": "constructor"
    },
    {
      "anonymous": false,
      "inputs": [
        {
          "indexed": true,
          "internalType": "string",
          "name": "roomId",
          "type": "string"
        },
        {
          "indexed": true,
          "internalType": "address",
          "name": "creator",
          "type": "address"
        }
      ],
      "name": "GameCancelled",
      "type": "event"
    },
    {
      "anonymous": false,
      "inputs": [
        {
          "indexed": true,
          "internalType": "string",
          "name": "roomId",
          "type": "string"
        },
        {
          "indexed": true,
          "internalType": "address",
          "name": "creator",
          "type": "address"
        }
      ],
      "name": "GameCreated",
      "type": "event"
    },
    {
      "anonymous": false,
      "inputs": [
        {
          "indexed": true,
          "internalType": "string",
          "name": "roomId",
          "type": "string"
        },
        {
          "indexed": true,
          "internalType": "address",
          "name": "joiner",
          "type": "address"
        }
      ],
      "name": "GameJoined",
      "type": "event"
    },
    {
      "anonymous": false,
      "inputs": [
        {
          "indexed": true,
          "internalType": "string",
          "name": "roomId",
          "type": "string"
        },
        {
          "indexed": true,
          "internalType": "address",
          "name": "winner",
          "type": "address"
        },
        {
          "indexed": false,
          "internalType": "uint256",
          "name": "matchNumber",
          "type": "uint256"
        }
      ],
      "name": "MatchFinished",
      "type": "event"
    },
    {
      "inputs": [],
      "name": "backend",
      "outputs": [
        {
          "internalType": "address",
          "name": "",
          "type": "address"
        }
      ],
      "stateMutability": "view",
      "type": "function"
    },
    {
      "inputs": [
        {
          "internalType": "string",
          "name": "roomId",
          "type": "string"
        }
      ],
      "name": "cancelGame",
      "outputs": [],
      "stateMutability": "nonpayable",
      "type": "function"
    },
    {
      "inputs": [
        {
          "internalType": "string",
          "name": "roomId",
          "type": "string"
        }
      ],
      "name": "createGame",
      "outputs": [],
      "stateMutability": "nonpayable",
      "type": "function"
    },
    {
      "inputs": [
        {
          "internalType": "string",
          "name": "",
          "type": "string"
        }
      ],
      "name": "games",
      "outputs": [
        {
          "internalType": "address",
          "name": "player1",
          "type": "address"
        },
        {
          "internalType": "address",
          "name": "player2",
          "type": "address"
        },
        {
          "internalType": "enum RPSOnline.GameState",
          "name": "state",
          "type": "uint8"
        },
        {
          "internalType": "uint256",
          "name": "createdAt",
          "type": "uint256"
        }
      ],
      "stateMutability": "view",
      "type": "function"
    },
    {
      "inputs": [
        {
          "internalType": "string",
          "name": "roomId",
          "type": "string"
        }
      ],
      "name": "getGame",
      "outputs": [
        {
          "components": [
            {
              "internalType": "address",
              "name": "player1",
              "type": "address"
            },
            {
              "internalType": "address",
              "name": "player2",
              "type": "address"
            },
            {
              "internalType": "enum RPSOnline.GameState",
              "name": "state",
              "type": "uint8"
            },
            {
              "internalType": "uint256",
              "name": "createdAt",
              "type": "uint256"
            },
            {
              "components": [
                {
                  "internalType": "address",
                  "name": "winner",
                  "type": "address"
                },
                {
                  "internalType": "uint256",
                  "name": "timestamp",
                  "type": "uint256"
                }
              ],
              "internalType": "struct RPSOnline.Match[]",
              "name": "matches",
              "type": "tuple[]"
            }
          ],
          "internalType": "struct RPSOnline.Game",
          "name": "",
          "type": "tuple"
        }
      ],
      "stateMutability": "view",
      "type": "function"
    },
    {
      "inputs": [
        {
          "internalType": "string",
          "name": "roomId",
          "type": "string"
        }
      ],
      "name": "getMatchHistory",
      "outputs": [
        {
          "components": [
            {
              "internalType": "address",
              "name": "winner",
              "type": "address"
            },
            {
              "internalType": "uint256",
              "name": "timestamp",
              "type": "uint256"
            }
          ],
          "internalType": "struct RPSOnline.Match[]",
          "name": "",
          "type": "tuple[]"
        }
      ],
      "stateMutability": "view",
      "type": "function"
    },
    {
      "inputs": [
        {
          "internalType": "string",
          "name": "roomId",
          "type": "string"
        }
      ],
      "name": "getRoomStats",
      "outputs": [
        {
          "internalType": "uint256",
          "name": "totalMatches",
          "type": "uint256"
        },
        {
          "internalType": "address",
          "name": "player1",
          "type": "address"
        },
        {
          "internalType": "address",
          "name": "player2",
          "type": "address"
        }
      ],
      "stateMutability": "view",
      "type": "function"
    },
    {
      "inputs": [
        {
          "internalType": "string",
          "name": "roomId",
          "type": "string"
        }
      ],
      "name": "isRoomAvailable",
      "outputs": [
        {
          "internalType": "bool",
          "name": "",
          "type": "bool"
        }
      ],
      "stateMutability": "view",
      "type": "function"
    },
    {
      "inputs": [
        {
          "internalType": "string",
          "name": "roomId",
          "type": "string"
        }
      ],
      "name": "joinGame",
      "outputs": [],
      "stateMutability": "nonpayable",
      "type": "function"
    },
    {
      "inputs": [
        {
          "internalType": "string",
          "name": "roomId",
          "type": "string"
        },
        {
          "internalType": "address",
          "name": "winner",
          "type": "address"
        }
      ],
      "name": "publishMatch",
      "outputs": [],
      "stateMutability": "nonpayable",
      "type": "function"
    }
  ],
  "transactionHash": "0x491d93194942f2ef87e9680eb81c6dec4ab6e9ca830f892db4df6a89b1fdfd1a",
  "args": [],
  "numDeployments": 1,
  "solcInputHash": "87b29e3550ec0a70f695bf7761c3b0a5",
  "bytecode": "0x608060405234801561001057600080fd5b50600080546001600160a01b03191633179055610e77806100326000396000f3fe608060405234801561001057600080fd5b506004361061009e5760003560e01c80633d536a2e116100665780633d536a2e1461013e5780633f62a41d146101515780634d92f652146101895780636d20931a146101a9578063ba3c70be1461020f57600080fd5b8063091c680b146100a3578063099e4133146100cb578063239a6a09146100f65780632ccce58a146101165780632ebc05041461012b575b600080fd5b6100b66100b1366004610c0c565b610222565b60405190151581526020015b60405180910390f35b6000546100de906001600160a01b031681565b6040516001600160a01b0390911681526020016100c2565b610109610104366004610c0c565b61029d565b6040516100c29190610c49565b610129610124366004610c0c565b610333565b005b610129610139366004610c0c565b6104fb565b61012961014c366004610c0c565b610600565b61016461015f366004610c0c565b6107e4565b604080519384526001600160a01b0392831660208501529116908201526060016100c2565b61019c610197366004610c0c565b610831565b6040516100c29190610cdc565b6101ff6101b7366004610c0c565b8051602081830181018051600180835293830192909401919091209290528154908201546002909201546001600160a01b039182169291821691600160a01b900460ff169084565b6040516100c29493929190610d80565b61012961021d366004610db4565b610963565b6000806001836040516102359190610e12565b90815260405190819003602001902080549091506001600160a01b03161580159061026b575060018101546001600160a01b0316155b8015610296575060006001820154600160a01b900460ff16600281111561029457610294610ca4565b145b9392505050565b60606001826040516102af9190610e12565b9081526020016040518091039020600301805480602002602001604051908101604052809291908181526020016000905b82821015610328576000848152602090819020604080518082019091526002850290910180546001600160a01b031682526001908101548284015290835290920191016102e0565b505050509050919050565b60006001826040516103459190610e12565b90815260405190819003602001902080549091506001600160a01b031633146103a75760405162461bcd60e51b815260206004820152600f60248201526e2737ba103a34329031b932b0ba37b960891b60448201526064015b60405180910390fd5b60006001820154600160a01b900460ff1660028111156103c9576103c9610ca4565b1461040d5760405162461bcd60e51b815260206004820152601460248201527311d85b5948185b1c9958591e481cdd185c9d195960621b604482015260640161039e565b60018101546001600160a01b0316156104605760405162461bcd60e51b8152602060048201526015602482015274141b185e595c88185b1c9958591e481a9bda5b9959605a1b604482015260640161039e565b6001826040516104709190610e12565b90815260405190819003602001902080546001600160a01b03191681556001810180546001600160a81b03191690556000600282018190556104b56003830182610b1b565b505060405133906104c7908490610e12565b604051908190038120907f7ff238c23efbc565b1260e8544189ea4857dd8c962b68f0dba39aed0b194165390600090a35050565b60006001600160a01b03166001826040516105169190610e12565b908152604051908190036020019020546001600160a01b0316146105725760405162461bcd60e51b8152602060048201526013602482015272526f6f6d20616c72656164792065786973747360681b604482015260640161039e565b60006001826040516105849190610e12565b90815260405190819003602001812080546001600160a01b0319163390811782556001820180546001600160a81b0319169055426002830155909250906105cc908490610e12565b604051908190038120907fac707a3f26c90292ba0efc38489e4d1f6feb1e99176a84573a02232af25aa08090600090a35050565b60006001826040516106129190610e12565b90815260405190819003602001902080549091506001600160a01b03166106715760405162461bcd60e51b8152602060048201526013602482015272149bdbdb48191bd95cc81b9bdd08195e1a5cdd606a1b604482015260640161039e565b60018101546001600160a01b0316156106bb5760405162461bcd60e51b815260206004820152600c60248201526b149bdbdb481a5cc8199d5b1b60a21b604482015260640161039e565b8054336001600160a01b03909116036107165760405162461bcd60e51b815260206004820152601960248201527f43616e6e6f74206a6f696e20796f7572206f776e20726f6f6d00000000000000604482015260640161039e565b60006001820154600160a01b900460ff16600281111561073857610738610ca4565b1461077a5760405162461bcd60e51b815260206004820152601260248201527147616d65206e6f7420617661696c61626c6560701b604482015260640161039e565b6001810180543360ff60a01b1981166001600160a81b031990921691909117600160a01b179091556040516107b0908490610e12565b604051908190038120907f69b91453edfa045ed34feb2b032d08b6c3333ec2404f18b285c7ce7ffe69ba5190600090a35050565b6000806000806001856040516107fa9190610e12565b908152604051908190036020019020600381015481546001909201549095506001600160a01b039182169450169150509193909250565b6108636040805160a0810182526000808252602082018190529091820190815260200160008152602001606081525090565b6001826040516108739190610e12565b90815260408051918290036020908101832060a08401835280546001600160a01b0390811685526001820154908116928501929092529183019060ff600160a01b9091041660028111156108c9576108c9610ca4565b60028111156108da576108da610ca4565b81526020016002820154815260200160038201805480602002602001604051908101604052809291908181526020016000905b82821015610955576000848152602090819020604080518082019091526002850290910180546001600160a01b0316825260019081015482840152908352909201910161090d565b505050915250909392505050565b60006001836040516109759190610e12565b90815260405190819003602001902080549091506001600160a01b03163314806109ab575060018101546001600160a01b031633145b6109e65760405162461bcd60e51b815260206004820152600c60248201526b2737ba103090383630bcb2b960a11b604482015260640161039e565b600180820154600160a01b900460ff166002811115610a0757610a07610ca4565b1480610a32575060026001820154600160a01b900460ff166002811115610a3057610a30610ca4565b145b610a6f5760405162461bcd60e51b815260206004820152600e60248201526d47616d65206e6f7420726561647960901b604482015260640161039e565b6040805180820182526001600160a01b03848116808352426020808501918252600387018054600180820183556000928352929091209551600290910290950180546001600160a01b031916959094169490941783555191909201559051610ad8908590610e12565b60405190819003812060038401548252907f5debdf5c3bd943cd3587df9cea860f45c04c5d8537d08d6cfcbd94881f92c4cf9060200160405180910390a3505050565b5080546000825560020290600052602060002090810190610b3c9190610b3f565b50565b5b80821115610b655780546001600160a01b031916815560006001820155600201610b40565b5090565b634e487b7160e01b600052604160045260246000fd5b600082601f830112610b9057600080fd5b813567ffffffffffffffff80821115610bab57610bab610b69565b604051601f8301601f19908116603f01168101908282118183101715610bd357610bd3610b69565b81604052838152866020858801011115610bec57600080fd5b836020870160208301376000602085830101528094505050505092915050565b600060208284031215610c1e57600080fd5b813567ffffffffffffffff811115610c3557600080fd5b610c4184828501610b7f565b949350505050565b6020808252825182820181905260009190848201906040850190845b81811015610c9857835180516001600160a01b031684526020908101519084015260408301938501939250600101610c65565b50909695505050505050565b634e487b7160e01b600052602160045260246000fd5b60038110610cd857634e487b7160e01b600052602160045260246000fd5b9052565b6000602080835260c0830160018060a01b0380865116838601528083870151166040860152506040850151610d146060860182610cba565b50606085015160808581019190915285015160a08086015280519182905282019060009060e08601905b80831015610d7557835180516001600160a01b03168352602090810151908301526040820191508484019350600183019250610d3e565b509695505050505050565b6001600160a01b0385811682528416602082015260808101610da56040830185610cba565b82606083015295945050505050565b60008060408385031215610dc757600080fd5b823567ffffffffffffffff811115610dde57600080fd5b610dea85828601610b7f565b92505060208301356001600160a01b0381168114610e0757600080fd5b809150509250929050565b6000825160005b81811015610e335760208186018101518583015201610e19565b50600092019182525091905056fea2646970667358221220d2168b2432428ef5238c5f2e6e9d95813d2ea10ffe04ff5f447908f8a69dc45b64736f6c63430008140033",
  "devdoc": {
    "kind": "dev",
    "methods": {},
    "version": 1
  },
  "userdoc": {
    "kind": "user",
    "methods": {},
    "version": 1
  },
  "storageLayout": {
    "storage": [
      {
        "astId": 26,
        "contract": "contracts/RPSOnline.sol:RPSOnline",
        "label": "backend",
        "offset": 0,
        "slot": "0",
        "type": "t_address"
      },
      {
        "astId": 31,
        "contract": "contracts/RPSOnline.sol:RPSOnline",
        "label": "games",
        "offset": 0,
        "slot": "1",
        "type": "t_mapping(t_string_memory_ptr,t_struct(Game)24_storage)"
      }
    ],
    "types": {
      "t_address": {
        "encoding": "inplace",
        "label": "address",
        "numberOfBytes": "20"
      },
      "t_array(t_struct(Match)10_storage)dyn_storage": {
        "base": "t_struct(Match)10_storage",
        "encoding": "dynamic_array",
        "label": "struct RPSOnline.Match[]",
        "numberOfBytes": "32"
      },
      "t_enum(GameState)5": {
        "encoding": "inplace",
        "label": "enum RPSOnline.GameState",
        "numberOfBytes": "1"
      },
      "t_mapping(t_string_memory_ptr,t_struct(Game)24_storage)": {
        "encoding": "mapping",
        "key": "t_string_memory_ptr",
        "label": "mapping(string => struct RPSOnline.Game)",
        "numberOfBytes": "32",
        "value": "t_struct(Game)24_storage"
      },
      "t_string_memory_ptr": {
        "encoding": "bytes",
        "label": "string",
        "numberOfBytes": "32"
      },
      "t_struct(Game)24_storage": {
        "encoding": "inplace",
        "label": "struct RPSOnline.Game",
        "members": [
          {
            "astId": 12,
            "contract": "contracts/RPSOnline.sol:RPSOnline",
            "label": "player1",
            "offset": 0,
            "slot": "0",
            "type": "t_address"
          },
          {
            "astId": 14,
            "contract": "contracts/RPSOnline.sol:RPSOnline",
            "label": "player2",
            "offset": 0,
            "slot": "1",
            "type": "t_address"
          },
          {
            "astId": 17,
            "contract": "contracts/RPSOnline.sol:RPSOnline",
            "label": "state",
            "offset": 20,
            "slot": "1",
            "type": "t_enum(GameState)5"
          },
          {
            "astId": 19,
            "contract": "contracts/RPSOnline.sol:RPSOnline",
            "label": "createdAt",
            "offset": 0,
            "slot": "2",
            "type": "t_uint256"
          },
          {
            "astId": 23,
            "contract": "contracts/RPSOnline.sol:RPSOnline",
            "label": "matches",
            "offset": 0,
            "slot": "3",
            "type": "t_array(t_struct(Match)10_storage)dyn_storage"
          }
        ],
        "numberOfBytes": "128"
      },
      "t_struct(Match)10_storage": {
        "encoding": "inplace",
        "label": "struct RPSOnline.Match",
        "members": [
          {
            "astId": 7,
            "contract": "contracts/RPSOnline.sol:RPSOnline",
            "label": "winner",
            "offset": 0,
            "slot": "0",
            "type": "t_address"
          },
          {
            "astId": 9,
            "contract": "contracts/RPSOnline.sol:RPSOnline",
            "label": "timestamp",
            "offset": 0,
            "slot": "1",
            "type": "t_uint256"
          }
        ],
        "numberOfBytes": "64"
      },
      "t_uint256": {
        "encoding": "inplace",
        "label": "uint256",
        "numberOfBytes": "32"
      }
    }
  }
}