{
  "address": "0xC0e5810C477E0BD84067b0A386ee643C6283445C",
  "abi": [
    {
      "inputs": [
        {
          "internalType": "address",
          "name": "_backend",
          "type": "address"
        },
        {
          "internalType": "address",
          "name": "_feeCollector",
          "type": "address"
        }
      ],
      "stateMutability": "nonpayable",
      "type": "constructor"
    },
    {
      "anonymous": false,
      "inputs": [
        {
          "indexed": true,
          "internalType": "string",
          "name": "roomId",
          "type": "string"
        },
        {
          "indexed": true,
          "internalType": "address",
          "name": "creator",
          "type": "address"
        }
      ],
      "name": "GameCancelled",
      "type": "event"
    },
    {
      "anonymous": false,
      "inputs": [
        {
          "indexed": true,
          "internalType": "string",
          "name": "roomId",
          "type": "string"
        },
        {
          "indexed": true,
          "internalType": "address",
          "name": "creator",
          "type": "address"
        },
        {
          "indexed": false,
          "internalType": "uint256",
          "name": "betAmount",
          "type": "uint256"
        }
      ],
      "name": "GameCreated",
      "type": "event"
    },
    {
      "anonymous": false,
      "inputs": [
        {
          "indexed": true,
          "internalType": "string",
          "name": "roomId",
          "type": "string"
        },
        {
          "indexed": true,
          "internalType": "address",
          "name": "winner",
          "type": "address"
        }
      ],
      "name": "GameFinished",
      "type": "event"
    },
    {
      "anonymous": false,
      "inputs": [
        {
          "indexed": true,
          "internalType": "string",
          "name": "roomId",
          "type": "string"
        },
        {
          "indexed": true,
          "internalType": "address",
          "name": "joiner",
          "type": "address"
        },
        {
          "indexed": false,
          "internalType": "uint256",
          "name": "betAmount",
          "type": "uint256"
        }
      ],
      "name": "GameJoined",
      "type": "event"
    },
    {
      "anonymous": false,
      "inputs": [
        {
          "indexed": true,
          "internalType": "string",
          "name": "roomId",
          "type": "string"
        },
        {
          "indexed": true,
          "internalType": "address",
          "name": "claimer",
          "type": "address"
        },
        {
          "indexed": false,
          "internalType": "uint256",
          "name": "amount",
          "type": "uint256"
        }
      ],
      "name": "WinningsClaimed",
      "type": "event"
    },
    {
      "inputs": [],
      "name": "FEE_PERCENTAGE",
      "outputs": [
        {
          "internalType": "uint256",
          "name": "",
          "type": "uint256"
        }
      ],
      "stateMutability": "view",
      "type": "function"
    },
    {
      "inputs": [],
      "name": "MIN_BET",
      "outputs": [
        {
          "internalType": "uint256",
          "name": "",
          "type": "uint256"
        }
      ],
      "stateMutability": "view",
      "type": "function"
    },
    {
      "inputs": [],
      "name": "backend",
      "outputs": [
        {
          "internalType": "address",
          "name": "",
          "type": "address"
        }
      ],
      "stateMutability": "view",
      "type": "function"
    },
    {
      "inputs": [
        {
          "internalType": "string",
          "name": "roomId",
          "type": "string"
        }
      ],
      "name": "cancelGame",
      "outputs": [],
      "stateMutability": "nonpayable",
      "type": "function"
    },
    {
      "inputs": [
        {
          "internalType": "string",
          "name": "roomId",
          "type": "string"
        }
      ],
      "name": "claimTimeout",
      "outputs": [],
      "stateMutability": "nonpayable",
      "type": "function"
    },
    {
      "inputs": [
        {
          "internalType": "string",
          "name": "roomId",
          "type": "string"
        }
      ],
      "name": "createGame",
      "outputs": [],
      "stateMutability": "payable",
      "type": "function"
    },
    {
      "inputs": [],
      "name": "feeCollector",
      "outputs": [
        {
          "internalType": "address",
          "name": "",
          "type": "address"
        }
      ],
      "stateMutability": "view",
      "type": "function"
    },
    {
      "inputs": [
        {
          "internalType": "string",
          "name": "roomId",
          "type": "string"
        },
        {
          "internalType": "address",
          "name": "winner",
          "type": "address"
        }
      ],
      "name": "finishGameAndPayout",
      "outputs": [],
      "stateMutability": "nonpayable",
      "type": "function"
    },
    {
      "inputs": [
        {
          "internalType": "string",
          "name": "",
          "type": "string"
        }
      ],
      "name": "games",
      "outputs": [
        {
          "internalType": "address",
          "name": "player1",
          "type": "address"
        },
        {
          "internalType": "address",
          "name": "player2",
          "type": "address"
        },
        {
          "internalType": "enum RPSOnline.GameState",
          "name": "state",
          "type": "uint8"
        },
        {
          "internalType": "address",
          "name": "winner",
          "type": "address"
        },
        {
          "internalType": "uint256",
          "name": "betAmount",
          "type": "uint256"
        },
        {
          "internalType": "uint256",
          "name": "createdAt",
          "type": "uint256"
        }
      ],
      "stateMutability": "view",
      "type": "function"
    },
    {
      "inputs": [
        {
          "internalType": "string",
          "name": "roomId",
          "type": "string"
        }
      ],
      "name": "getGame",
      "outputs": [
        {
          "components": [
            {
              "internalType": "address",
              "name": "player1",
              "type": "address"
            },
            {
              "internalType": "address",
              "name": "player2",
              "type": "address"
            },
            {
              "internalType": "enum RPSOnline.GameState",
              "name": "state",
              "type": "uint8"
            },
            {
              "internalType": "address",
              "name": "winner",
              "type": "address"
            },
            {
              "internalType": "uint256",
              "name": "betAmount",
              "type": "uint256"
            },
            {
              "internalType": "uint256",
              "name": "createdAt",
              "type": "uint256"
            }
          ],
          "internalType": "struct RPSOnline.Game",
          "name": "",
          "type": "tuple"
        }
      ],
      "stateMutability": "view",
      "type": "function"
    },
    {
      "inputs": [
        {
          "internalType": "string",
          "name": "roomId",
          "type": "string"
        }
      ],
      "name": "isRoomAvailable",
      "outputs": [
        {
          "internalType": "bool",
          "name": "",
          "type": "bool"
        }
      ],
      "stateMutability": "view",
      "type": "function"
    },
    {
      "inputs": [
        {
          "internalType": "string",
          "name": "roomId",
          "type": "string"
        }
      ],
      "name": "joinGame",
      "outputs": [],
      "stateMutability": "payable",
      "type": "function"
    }
  ],
  "transactionHash": "0xffc4f506cf74c15b88ca3a5c594962a41f6a261cf7c5b7f7b450dadc19872514",
  "args": [
    "0x4298d42cf8a15b88ee7d9cd36ad3686f9b9fd5f6",
    "0x4298d42cf8a15b88ee7d9cd36ad3686f9b9fd5f6"
  ],
  "numDeployments": 3,
  "solcInputHash": "b43a47c217c7185e84df8a60ec9e2a08",
  "bytecode": "0x608060405234801561001057600080fd5b506040516113c83803806113c883398101604081905261002f9161007c565b600080546001600160a01b039384166001600160a01b031991821617909155600180549290931691161790556100af565b80516001600160a01b038116811461007757600080fd5b919050565b6000806040838503121561008f57600080fd5b61009883610060565b91506100a660208401610060565b90509250929050565b61130a806100be6000396000f3fe6080604052600436106100a65760003560e01c80634d92f652116100645780634d92f652146101835780636540742f146101b05780636d20931a146101cb578063736cd2ae1461024f578063c415b95c1461026f578063d14c25b31461028f57600080fd5b80620b46f8146100ab578063091c680b146100d3578063099e4133146101035780632ccce58a1461013b5780632ebc05041461015d5780633d536a2e14610170575b600080fd5b3480156100b757600080fd5b506100c0607d81565b6040519081526020015b60405180910390f35b3480156100df57600080fd5b506100f36100ee366004611097565b6102af565b60405190151581526020016100ca565b34801561010f57600080fd5b50600054610123906001600160a01b031681565b6040516001600160a01b0390911681526020016100ca565b34801561014757600080fd5b5061015b610156366004611097565b61039d565b005b61015b61016b366004611097565b61059c565b61015b61017e366004611097565b6107b4565b34801561018f57600080fd5b506101a361019e366004611097565b6109ed565b6040516100ca919061110c565b3480156101bc57600080fd5b506100c0662386f26fc1000081565b3480156101d757600080fd5b5061023d6101e6366004611097565b805160208183018101805160028083529383019290940191909120929052815460018301549183015460038401546004909401546001600160a01b039283169483851694600160a01b900460ff1693909216919086565b6040516100ca96959493929190611167565b34801561025b57600080fd5b5061015b61026a3660046111ac565b610ac4565b34801561027b57600080fd5b50600154610123906001600160a01b031681565b34801561029b57600080fd5b5061015b6102aa366004611097565b610e37565b6000806002836040516102c2919061120a565b90815260408051918290036020908101832060c08401835280546001600160a01b0390811685526001820154908116928501929092529183019060ff600160a01b909104166003811115610318576103186110d4565b6003811115610329576103296110d4565b815260028201546001600160a01b0390811660208301526003830154604083015260049092015460609091015281519192501615801590610375575060208101516001600160a01b0316155b80156103965750600081604001516003811115610394576103946110d4565b145b9392505050565b60006002826040516103af919061120a565b90815260405190819003602001902080549091506001600160a01b031633146104115760405162461bcd60e51b815260206004820152600f60248201526e2737ba103a34329031b932b0ba37b960891b60448201526064015b60405180910390fd5b60006001820154600160a01b900460ff166003811115610433576104336110d4565b146104775760405162461bcd60e51b815260206004820152601460248201527311d85b5948185b1c9958591e481cdd185c9d195960621b6044820152606401610408565b60018101546001600160a01b0316156104ca5760405162461bcd60e51b8152602060048201526015602482015274141b185e595c88185b1c9958591e481a9bda5b9959605a1b6044820152606401610408565b60038101546040516002906104e090859061120a565b90815260405190819003602001812080546001600160a01b031990811682556001820180546001600160a81b031916905560028201805490911690556000600382018190556004909101819055339183156108fc0291849190818181858888f19350505050158015610556573d6000803e3d6000fd5b50604051339061056790859061120a565b604051908190038120907f7ff238c23efbc565b1260e8544189ea4857dd8c962b68f0dba39aed0b194165390600090a3505050565b60006001600160a01b03166002826040516105b7919061120a565b908152604051908190036020019020546001600160a01b0316146106135760405162461bcd60e51b8152602060048201526013602482015272526f6f6d20616c72656164792065786973747360681b6044820152606401610408565b662386f26fc100003410156106785760405162461bcd60e51b815260206004820152602560248201527f42657420616d6f756e74206d757374206265206174206c6561737420302e30316044820152642043454c4f60d81b6064820152608401610408565b6040805160c08101825233815260006020820181905281830181905260608201523460808201524260a082015290516002906106b590849061120a565b9081526040805160209281900383019020835181546001600160a01b03199081166001600160a01b0392831617835593850151600183018054958616919092169081178255928501519193919290916001600160a81b03191617600160a01b836003811115610726576107266110d4565b021790555060608201516002820180546001600160a01b0319166001600160a01b039092169190911790556080820151600382015560a090910151600490910155604051339061077790839061120a565b604051908190038120348252907f132c99221e3a8bd54ab4759163b62794bddb60ad4f2dc5f1e3604a5fe03bae579060200160405180910390a350565b60006002826040516107c6919061120a565b90815260405190819003602001902080549091506001600160a01b03166108255760405162461bcd60e51b8152602060048201526013602482015272149bdbdb48191bd95cc81b9bdd08195e1a5cdd606a1b6044820152606401610408565b60018101546001600160a01b03161561086f5760405162461bcd60e51b815260206004820152600c60248201526b149bdbdb481a5cc8199d5b1b60a21b6044820152606401610408565b8054336001600160a01b03909116036108ca5760405162461bcd60e51b815260206004820152601960248201527f43616e6e6f74206a6f696e20796f7572206f776e20726f6f6d000000000000006044820152606401610408565b60006001820154600160a01b900460ff1660038111156108ec576108ec6110d4565b1461092e5760405162461bcd60e51b815260206004820152601260248201527147616d65206e6f7420617661696c61626c6560701b6044820152606401610408565b806003015434146109785760405162461bcd60e51b8152602060048201526014602482015273125b98dbdc9c9958dd0818995d08185b5bdd5b9d60621b6044820152606401610408565b6001810180543360ff60a01b1981166001600160a81b031990921691909117600160a01b179091556040516109ae90849061120a565b604051908190038120348252907ffe6f5d8cb98c6755bfc3a61365e3aab8c7ec333f92cf8f419e153bba0ed0d361906020015b60405180910390a35050565b6040805160c081018252600080825260208201819052818301819052606082018190526080820181905260a08201529051600290610a2c90849061120a565b90815260408051918290036020908101832060c08401835280546001600160a01b0390811685526001820154908116928501929092529183019060ff600160a01b909104166003811115610a8257610a826110d4565b6003811115610a9357610a936110d4565b815260028201546001600160a01b031660208201526003820154604082015260049091015460609091015292915050565b6000546001600160a01b03163314610b1e5760405162461bcd60e51b815260206004820152601c60248201527f4f6e6c79206261636b656e642063616e2066696e6973682067616d65000000006044820152606401610408565b6000600283604051610b30919061120a565b9081526040519081900360200190209050600180820154600160a01b900460ff166003811115610b6257610b626110d4565b14610ba65760405162461bcd60e51b815260206004820152601460248201527347616d65206e6f7420696e2070726f677265737360601b6044820152606401610408565b600081600301546002610bb9919061124f565b90506001600160a01b038316610ce057815460038301546040516001600160a01b039092169181156108fc0291906000818181858888f19350505050158015610c06573d6000803e3d6000fd5b50600182015460038301546040516001600160a01b039092169181156108fc0291906000818181858888f19350505050158015610c47573d6000803e3d6000fd5b5081546040516001600160a01b0390911690610c6490869061120a565b60405190819003812060038501548252906000805160206112b58339815191529060200160405180910390a360018201546040516001600160a01b0390911690610caf90869061120a565b60405190819003812060038501548252906000805160206112b58339815191529060200160405180910390a3610dbe565b6000612710610cf0607d8461124f565b610cfa919061126c565b90506000610d08828461128e565b6001546040519192506001600160a01b03169083156108fc029084906000818181858888f19350505050158015610d43573d6000803e3d6000fd5b506040516001600160a01b0386169082156108fc029083906000818181858888f19350505050158015610d7a573d6000803e3d6000fd5b50846001600160a01b031686604051610d93919061120a565b604051908190038120838252906000805160206112b58339815191529060200160405180910390a350505b6002820180546001600160a01b0319166001600160a01b03851690811790915560018301805460ff60a01b1916600160a11b179055604051610e0190869061120a565b604051908190038120907f8faeeac76a6e18b7d45e0ec2ae51d949cc784f877b0c55bbc21157f141d61cc890600090a350505050565b6000600282604051610e49919061120a565b9081526040519081900360200190209050600180820154600160a01b900460ff166003811115610e7b57610e7b6110d4565b14610ebf5760405162461bcd60e51b815260206004820152601460248201527347616d65206e6f7420696e2070726f677265737360601b6044820152606401610408565b80546001600160a01b0316331480610ee3575060018101546001600160a01b031633145b610f1e5760405162461bcd60e51b815260206004820152600c60248201526b2737ba103090383630bcb2b960a11b6044820152606401610408565b6004810154610f309062093a806112a1565b421015610f755760405162461bcd60e51b8152602060048201526013602482015272151a5b595bdd5d081b9bdd081c995858da1959606a1b6044820152606401610408565b60018101805460ff60a01b1916600160a11b1790556003810154604051339180156108fc02916000818181858888f19350505050158015610fba573d6000803e3d6000fd5b506040513390610fcb90849061120a565b60405190819003812060038401548252906000805160206112b5833981519152906020016109e1565b634e487b7160e01b600052604160045260246000fd5b600082601f83011261101b57600080fd5b813567ffffffffffffffff8082111561103657611036610ff4565b604051601f8301601f19908116603f0116810190828211818310171561105e5761105e610ff4565b8160405283815286602085880101111561107757600080fd5b836020870160208301376000602085830101528094505050505092915050565b6000602082840312156110a957600080fd5b813567ffffffffffffffff8111156110c057600080fd5b6110cc8482850161100a565b949350505050565b634e487b7160e01b600052602160045260246000fd5b6004811061110857634e487b7160e01b600052602160045260246000fd5b9052565b81516001600160a01b03908116825260208084015182169083015260408084015160c08401929161113f908501826110ea565b50806060850151166060840152506080830151608083015260a083015160a083015292915050565b6001600160a01b038781168252868116602083015260c082019061118e60408401886110ea565b949094166060820152608081019290925260a0909101529392505050565b600080604083850312156111bf57600080fd5b823567ffffffffffffffff8111156111d657600080fd5b6111e28582860161100a565b92505060208301356001600160a01b03811681146111ff57600080fd5b809150509250929050565b6000825160005b8181101561122b5760208186018101518583015201611211565b506000920191825250919050565b634e487b7160e01b600052601160045260246000fd5b808202811582820484141761126657611266611239565b92915050565b60008261128957634e487b7160e01b600052601260045260246000fd5b500490565b8181038181111561126657611266611239565b808201808211156112665761126661123956fe7175967b5ddee4d7986318165167133a8c193aa59b05f411ec131d4f124a3f3da264697066735822122027f349c5ce08989f748b05173363ec63803d4f6da54da91999acffb8f5d8e3b964736f6c63430008140033",
  "devdoc": {
    "kind": "dev",
    "methods": {},
    "version": 1
  },
  "userdoc": {
    "kind": "user",
    "methods": {},
    "version": 1
  },
  "storageLayout": {
    "storage": [
      {
        "astId": 22,
        "contract": "contracts/RPSOnline.sol:RPSOnline",
        "label": "backend",
        "offset": 0,
        "slot": "0",
        "type": "t_address"
      },
      {
        "astId": 24,
        "contract": "contracts/RPSOnline.sol:RPSOnline",
        "label": "feeCollector",
        "offset": 0,
        "slot": "1",
        "type": "t_address"
      },
      {
        "astId": 35,
        "contract": "contracts/RPSOnline.sol:RPSOnline",
        "label": "games",
        "offset": 0,
        "slot": "2",
        "type": "t_mapping(t_string_memory_ptr,t_struct(Game)20_storage)"
      }
    ],
    "types": {
      "t_address": {
        "encoding": "inplace",
        "label": "address",
        "numberOfBytes": "20"
      },
      "t_enum(GameState)6": {
        "encoding": "inplace",
        "label": "enum RPSOnline.GameState",
        "numberOfBytes": "1"
      },
      "t_mapping(t_string_memory_ptr,t_struct(Game)20_storage)": {
        "encoding": "mapping",
        "key": "t_string_memory_ptr",
        "label": "mapping(string => struct RPSOnline.Game)",
        "numberOfBytes": "32",
        "value": "t_struct(Game)20_storage"
      },
      "t_string_memory_ptr": {
        "encoding": "bytes",
        "label": "string",
        "numberOfBytes": "32"
      },
      "t_struct(Game)20_storage": {
        "encoding": "inplace",
        "label": "struct RPSOnline.Game",
        "members": [
          {
            "astId": 8,
            "contract": "contracts/RPSOnline.sol:RPSOnline",
            "label": "player1",
            "offset": 0,
            "slot": "0",
            "type": "t_address"
          },
          {
            "astId": 10,
            "contract": "contracts/RPSOnline.sol:RPSOnline",
            "label": "player2",
            "offset": 0,
            "slot": "1",
            "type": "t_address"
          },
          {
            "astId": 13,
            "contract": "contracts/RPSOnline.sol:RPSOnline",
            "label": "state",
            "offset": 20,
            "slot": "1",
            "type": "t_enum(GameState)6"
          },
          {
            "astId": 15,
            "contract": "contracts/RPSOnline.sol:RPSOnline",
            "label": "winner",
            "offset": 0,
            "slot": "2",
            "type": "t_address"
          },
          {
            "astId": 17,
            "contract": "contracts/RPSOnline.sol:RPSOnline",
            "label": "betAmount",
            "offset": 0,
            "slot": "3",
            "type": "t_uint256"
          },
          {
            "astId": 19,
            "contract": "contracts/RPSOnline.sol:RPSOnline",
            "label": "createdAt",
            "offset": 0,
            "slot": "4",
            "type": "t_uint256"
          }
        ],
        "numberOfBytes": "160"
      },
      "t_uint256": {
        "encoding": "inplace",
        "label": "uint256",
        "numberOfBytes": "32"
      }
    }
  }
}