{
  "address": "0xE6D3cb78A795a49E4AF320282d7cD5117931f6B0",
  "abi": [
    {
      "anonymous": false,
      "inputs": [
        {
          "indexed": true,
          "internalType": "string",
          "name": "roomId",
          "type": "string"
        },
        {
          "indexed": true,
          "internalType": "address",
          "name": "creator",
          "type": "address"
        }
      ],
      "name": "GameCancelled",
      "type": "event"
    },
    {
      "anonymous": false,
      "inputs": [
        {
          "indexed": true,
          "internalType": "string",
          "name": "roomId",
          "type": "string"
        },
        {
          "indexed": true,
          "internalType": "address",
          "name": "creator",
          "type": "address"
        }
      ],
      "name": "GameCreated",
      "type": "event"
    },
    {
      "anonymous": false,
      "inputs": [
        {
          "indexed": true,
          "internalType": "string",
          "name": "roomId",
          "type": "string"
        },
        {
          "indexed": true,
          "internalType": "address",
          "name": "winner",
          "type": "address"
        }
      ],
      "name": "GameFinished",
      "type": "event"
    },
    {
      "anonymous": false,
      "inputs": [
        {
          "indexed": true,
          "internalType": "string",
          "name": "roomId",
          "type": "string"
        },
        {
          "indexed": true,
          "internalType": "address",
          "name": "joiner",
          "type": "address"
        }
      ],
      "name": "GameJoined",
      "type": "event"
    },
    {
      "anonymous": false,
      "inputs": [
        {
          "indexed": true,
          "internalType": "string",
          "name": "roomId",
          "type": "string"
        },
        {
          "indexed": true,
          "internalType": "address",
          "name": "player",
          "type": "address"
        }
      ],
      "name": "MoveCommitted",
      "type": "event"
    },
    {
      "anonymous": false,
      "inputs": [
        {
          "indexed": true,
          "internalType": "string",
          "name": "roomId",
          "type": "string"
        },
        {
          "indexed": true,
          "internalType": "address",
          "name": "player",
          "type": "address"
        },
        {
          "indexed": false,
          "internalType": "uint8",
          "name": "move",
          "type": "uint8"
        }
      ],
      "name": "MoveRevealed",
      "type": "event"
    },
    {
      "anonymous": false,
      "inputs": [
        {
          "indexed": true,
          "internalType": "string",
          "name": "roomId",
          "type": "string"
        },
        {
          "indexed": true,
          "internalType": "address",
          "name": "winner",
          "type": "address"
        },
        {
          "indexed": false,
          "internalType": "uint256",
          "name": "amount",
          "type": "uint256"
        }
      ],
      "name": "WinningsClaimed",
      "type": "event"
    },
    {
      "inputs": [
        {
          "internalType": "string",
          "name": "roomId",
          "type": "string"
        }
      ],
      "name": "cancelGame",
      "outputs": [],
      "stateMutability": "nonpayable",
      "type": "function"
    },
    {
      "inputs": [
        {
          "internalType": "string",
          "name": "roomId",
          "type": "string"
        }
      ],
      "name": "claimWinnings",
      "outputs": [],
      "stateMutability": "nonpayable",
      "type": "function"
    },
    {
      "inputs": [
        {
          "internalType": "string",
          "name": "roomId",
          "type": "string"
        }
      ],
      "name": "createGame",
      "outputs": [],
      "stateMutability": "payable",
      "type": "function"
    },
    {
      "inputs": [
        {
          "internalType": "string",
          "name": "",
          "type": "string"
        }
      ],
      "name": "games",
      "outputs": [
        {
          "internalType": "address",
          "name": "player1",
          "type": "address"
        },
        {
          "internalType": "address",
          "name": "player2",
          "type": "address"
        },
        {
          "internalType": "bytes32",
          "name": "player1Move",
          "type": "bytes32"
        },
        {
          "internalType": "bytes32",
          "name": "player2Move",
          "type": "bytes32"
        },
        {
          "internalType": "uint8",
          "name": "revealedMove1",
          "type": "uint8"
        },
        {
          "internalType": "uint8",
          "name": "revealedMove2",
          "type": "uint8"
        },
        {
          "internalType": "enum RPSOnline.GameState",
          "name": "state",
          "type": "uint8"
        },
        {
          "internalType": "address",
          "name": "winner",
          "type": "address"
        },
        {
          "internalType": "uint256",
          "name": "betAmount",
          "type": "uint256"
        },
        {
          "internalType": "bool",
          "name": "player1Paid",
          "type": "bool"
        },
        {
          "internalType": "bool",
          "name": "player2Paid",
          "type": "bool"
        },
        {
          "internalType": "uint256",
          "name": "createdAt",
          "type": "uint256"
        }
      ],
      "stateMutability": "view",
      "type": "function"
    },
    {
      "inputs": [
        {
          "internalType": "string",
          "name": "roomId",
          "type": "string"
        }
      ],
      "name": "getGame",
      "outputs": [
        {
          "components": [
            {
              "internalType": "address",
              "name": "player1",
              "type": "address"
            },
            {
              "internalType": "address",
              "name": "player2",
              "type": "address"
            },
            {
              "internalType": "bytes32",
              "name": "player1Move",
              "type": "bytes32"
            },
            {
              "internalType": "bytes32",
              "name": "player2Move",
              "type": "bytes32"
            },
            {
              "internalType": "uint8",
              "name": "revealedMove1",
              "type": "uint8"
            },
            {
              "internalType": "uint8",
              "name": "revealedMove2",
              "type": "uint8"
            },
            {
              "internalType": "enum RPSOnline.GameState",
              "name": "state",
              "type": "uint8"
            },
            {
              "internalType": "address",
              "name": "winner",
              "type": "address"
            },
            {
              "internalType": "uint256",
              "name": "betAmount",
              "type": "uint256"
            },
            {
              "internalType": "bool",
              "name": "player1Paid",
              "type": "bool"
            },
            {
              "internalType": "bool",
              "name": "player2Paid",
              "type": "bool"
            },
            {
              "internalType": "uint256",
              "name": "createdAt",
              "type": "uint256"
            }
          ],
          "internalType": "struct RPSOnline.Game",
          "name": "",
          "type": "tuple"
        }
      ],
      "stateMutability": "view",
      "type": "function"
    },
    {
      "inputs": [
        {
          "internalType": "string",
          "name": "roomId",
          "type": "string"
        }
      ],
      "name": "isRoomAvailable",
      "outputs": [
        {
          "internalType": "bool",
          "name": "",
          "type": "bool"
        }
      ],
      "stateMutability": "view",
      "type": "function"
    },
    {
      "inputs": [
        {
          "internalType": "string",
          "name": "roomId",
          "type": "string"
        }
      ],
      "name": "joinGame",
      "outputs": [],
      "stateMutability": "payable",
      "type": "function"
    },
    {
      "inputs": [
        {
          "internalType": "string",
          "name": "roomId",
          "type": "string"
        },
        {
          "internalType": "uint8",
          "name": "move",
          "type": "uint8"
        },
        {
          "internalType": "uint256",
          "name": "nonce",
          "type": "uint256"
        }
      ],
      "name": "revealMove",
      "outputs": [],
      "stateMutability": "nonpayable",
      "type": "function"
    },
    {
      "inputs": [
        {
          "internalType": "string",
          "name": "roomId",
          "type": "string"
        },
        {
          "internalType": "bytes32",
          "name": "hashedMove",
          "type": "bytes32"
        }
      ],
      "name": "submitMove",
      "outputs": [],
      "stateMutability": "nonpayable",
      "type": "function"
    }
  ],
  "transactionHash": "0x2ad4fb6c929ab93a0fd57fee1ad825acb1d1ee71b54b4ed10947c4664e9c1695",
  "args": [],
  "numDeployments": 2,
  "solcInputHash": "c2dbae9b4d1731e3143f51c443d6383b",
  "bytecode": "0x608060405234801561001057600080fd5b50611922806100206000396000f3fe6080604052600436106100865760003560e01c80634d92f652116100595780634d92f652146101085780635efcb055146101355780636d20931a146101555780639d38e6201461020c578063fdbcf1251461022c57600080fd5b8063091c680b1461008b5780632ccce58a146100c05780632ebc0504146100e25780633d536a2e146100f5575b600080fd5b34801561009757600080fd5b506100ab6100a636600461160e565b61024c565b60405190151581526020015b60405180910390f35b3480156100cc57600080fd5b506100e06100db36600461160e565b61038e565b005b6100e06100f036600461160e565b6105a6565b6100e061010336600461160e565b6107f9565b34801561011457600080fd5b5061012861012336600461160e565b610a3b565b6040516100b7919061167b565b34801561014157600080fd5b506100e061015036600461174b565b610b98565b34801561016157600080fd5b506101f461017036600461160e565b8051602081830181018051600082529282019190930120915280546001820154600283015460038401546004850154600586015460068701546007909701546001600160a01b0396871697958716969495939460ff80851695610100808704831696620100008104841696630100000090910490941694838316939190920416908c565b6040516100b79c9b9a99989796959493929190611790565b34801561021857600080fd5b506100e061022736600461180c565b610d97565b34801561023857600080fd5b506100e061024736600461160e565b611195565b60008060008360405161025f919061186c565b9081526040805191829003602090810183206101808401835280546001600160a01b039081168552600182015416918401919091526002810154918301919091526003810154606083015260048082015460ff80821660808601526101008204811660a086015260c08501926201000090920416908111156102e3576102e3611643565b60048111156102f4576102f4611643565b815260048201546001600160a01b0363010000009091048116602083015260058301546040830152600683015460ff80821615156060850152610100909104161515608083015260079092015460a09091015281519192501615801590610366575060208101516001600160a01b0316155b8015610387575060008160c00151600481111561038557610385611643565b145b9392505050565b6000808260405161039f919061186c565b90815260405190819003602001902080549091506001600160a01b031633146104015760405162461bcd60e51b815260206004820152600f60248201526e2737ba103a34329031b932b0ba37b960891b60448201526064015b60405180910390fd5b600060048281015462010000900460ff169081111561042257610422611643565b146104665760405162461bcd60e51b815260206004820152601460248201527311d85b5948185b1c9958591e481cdd185c9d195960621b60448201526064016103f8565b60018101546001600160a01b0316156104b95760405162461bcd60e51b8152602060048201526015602482015274141b185e595c88185b1c9958591e481a9bda5b9959605a1b60448201526064016103f8565b60058101546040516000906104cf90859061186c565b90815260405190819003602001812080546001600160a01b031990811682556001820180549091169055600060028201819055600382018190556004820180546001600160b81b03191690556005820181905560068201805461ffff191690556007909101819055339183156108fc0291849190818181858888f19350505050158015610560573d6000803e3d6000fd5b50604051339061057190859061186c565b604051908190038120907f7ff238c23efbc565b1260e8544189ea4857dd8c962b68f0dba39aed0b194165390600090a3505050565b60006001600160a01b03166000826040516105c1919061186c565b908152604051908190036020019020546001600160a01b03161461061d5760405162461bcd60e51b8152602060048201526013602482015272526f6f6d20616c72656164792065786973747360681b60448201526064016103f8565b6040805161018081018252338152600060208201819052818301819052606082018190526080820181905260a0820181905260c0820181905260e08201819052346101008301526001610120830152610140820181905242610160830152915190919061068b90849061186c565b9081526040805160209281900383019020835181546001600160a01b03199081166001600160a01b039283161783559385015160018301805490951691161790925582015160028201556060820151600382015560808201516004808301805460a086015160ff94851661ffff199092169190911761010094909116939093029290921780835560c0850151929162ff000019909116906201000090849081111561073857610738611643565b021790555060e08201516004820180546301000000600160b81b03191663010000006001600160a01b039093169290920291909117905561010080830151600583015561012083015160068301805461014086015161ffff1990911692151561ff001916929092179115159092021790556101609091015160079091015560405133906107c690839061186c565b604051908190038120907fac707a3f26c90292ba0efc38489e4d1f6feb1e99176a84573a02232af25aa08090600090a350565b6000808260405161080a919061186c565b90815260405190819003602001902080549091506001600160a01b03166108695760405162461bcd60e51b8152602060048201526013602482015272149bdbdb48191bd95cc81b9bdd08195e1a5cdd606a1b60448201526064016103f8565b60018101546001600160a01b0316156108b35760405162461bcd60e51b815260206004820152600c60248201526b149bdbdb481a5cc8199d5b1b60a21b60448201526064016103f8565b8054336001600160a01b039091160361090e5760405162461bcd60e51b815260206004820152601960248201527f43616e6e6f74206a6f696e20796f7572206f776e20726f6f6d0000000000000060448201526064016103f8565b600060048281015462010000900460ff169081111561092f5761092f611643565b146109715760405162461bcd60e51b815260206004820152601260248201527147616d65206e6f7420617661696c61626c6560701b60448201526064016103f8565b806005015434146109bb5760405162461bcd60e51b8152602060048201526014602482015273125b98dbdc9c9958dd0818995d08185b5bdd5b9d60621b60448201526064016103f8565b600180820180546001600160a01b0319163317905560068201805461ff00191661010017905560048201805462ff00001916620100008302179055506040513390610a0790849061186c565b604051908190038120907f69b91453edfa045ed34feb2b032d08b6c3333ec2404f18b285c7ce7ffe69ba5190600090a35050565b6040805161018081018252600080825260208201819052918101829052606081018290526080810182905260a0810182905260c0810182905260e08101829052610100810182905261012081018290526101408101829052610160810191909152600082604051610aac919061186c565b9081526040805191829003602090810183206101808401835280546001600160a01b039081168552600182015416918401919091526002810154918301919091526003810154606083015260048082015460ff80821660808601526101008204811660a086015260c0850192620100009092041690811115610b3057610b30611643565b6004811115610b4157610b41611643565b81526004820154630100000090046001600160a01b0316602082015260058201546040820152600682015460ff80821615156060840152610100909104161515608082015260079091015460a09091015292915050565b60008083604051610ba9919061186c565b9081526040519081900360200190209050600160048281015462010000900460ff1690811115610bdb57610bdb611643565b14610c285760405162461bcd60e51b815260206004820152601860248201527f47616d65206e6f7420726561647920666f72206d6f766573000000000000000060448201526064016103f8565b80546001600160a01b0316331480610c4c575060018101546001600160a01b031633145b610c685760405162461bcd60e51b81526004016103f89061189b565b80546001600160a01b03163303610cd057600281015415610cc45760405162461bcd60e51b8152602060048201526016602482015275135bdd9948185b1c9958591e481cdd589b5a5d1d195960521b60448201526064016103f8565b60028101829055610d23565b600381015415610d1b5760405162461bcd60e51b8152602060048201526016602482015275135bdd9948185b1c9958591e481cdd589b5a5d1d195960521b60448201526064016103f8565b600381018290555b600281015415801590610d395750600381015415155b15610d525760048101805462ff00001916620200001790555b6040513390610d6290859061186c565b604051908190038120907f50e90bc778b131f198a22cea654598cd74326a73c5d1f5d05aabe61872e31a0f90600090a3505050565b60008084604051610da8919061186c565b9081526040519081900360200190209050600260048281015462010000900460ff1690811115610dda57610dda611643565b14610e275760405162461bcd60e51b815260206004820152601760248201527f4d6f766573206e6f7420636f6d6d69747465642079657400000000000000000060448201526064016103f8565b60018360ff1610158015610e3f575060038360ff1611155b610e7a5760405162461bcd60e51b815260206004820152600c60248201526b496e76616c6964206d6f766560a01b60448201526064016103f8565b80546001600160a01b0316331480610e9e575060018101546001600160a01b031633145b610eba5760405162461bcd60e51b81526004016103f89061189b565b6040516001600160f81b031960f885901b166020820152602181018390526bffffffffffffffffffffffff193360601b16604182015260009060550160408051601f19818403018152919052805160209091012082549091506001600160a01b03163303610fc45780826002015414610f665760405162461bcd60e51b815260206004820152600e60248201526d125b9d985b1a59081c995d99585b60921b60448201526064016103f8565b600482015460ff1615610fae5760405162461bcd60e51b815260206004820152601060248201526f105b1c9958591e481c995d99585b195960821b60448201526064016103f8565b60048201805460ff191660ff861617905561106c565b808260030154146110085760405162461bcd60e51b815260206004820152600e60248201526d125b9d985b1a59081c995d99585b60921b60448201526064016103f8565b6004820154610100900460ff16156110555760405162461bcd60e51b815260206004820152601060248201526f105b1c9958591e481c995d99585b195960821b60448201526064016103f8565b60048201805461ff00191661010060ff8716021790555b604051339061107c90879061186c565b60405190819003812060ff87168252907fa739a77042ec4f4de65a38d9924a30493f04539148456857e1c24f9dbe9e8a9e9060200160405180910390a3600482015460ff16158015906110da57506004820154610100900460ff1615155b1561118e5760048201548254600184015461110f9260ff8082169361010090920416916001600160a01b0391821691166114ef565b6004830180546001600160a01b03928316630100000090810262ff0000191662010000600160b81b03199092169190911762040000179182905560405191049091169061115d90879061186c565b604051908190038120907f8faeeac76a6e18b7d45e0ec2ae51d949cc784f877b0c55bbc21157f141d61cc890600090a35b5050505050565b600080826040516111a6919061186c565b90815260405190819003602001902090506004808281015462010000900460ff16908111156111d7576111d7611643565b146112185760405162461bcd60e51b815260206004820152601160248201527011d85b59481b9bdd08199a5b9a5cda1959607a1b60448201526064016103f8565b600681015460ff16801561123557506006810154610100900460ff165b6112755760405162461bcd60e51b815260206004820152601160248201527042657473206e6f7420636f6d706c65746560781b60448201526064016103f8565b60008160050154600261128891906118c1565b6004830154909150630100000090046001600160a01b03166113d35781546001600160a01b03163314806112c8575060018201546001600160a01b031633145b6112e45760405162461bcd60e51b81526004016103f89061189b565b81546001600160a01b0316331480156113015750600682015460ff165b1561135557815460058301546040516001600160a01b039092169181156108fc0291906000818181858888f19350505050158015611343573d6000803e3d6000fd5b5060068201805460ff19169055611478565b60018201546001600160a01b03163314801561137a57506006820154610100900460ff165b156113ce57600182015460058301546040516001600160a01b039092169181156108fc0291906000818181858888f193505050501580156113bf573d6000803e3d6000fd5b5060068201805461ff00191690555b611478565b6004820154630100000090046001600160a01b031633146114275760405162461bcd60e51b815260206004820152600e60248201526d2737ba103a3432903bb4b73732b960911b60448201526064016103f8565b600482015460405163010000009091046001600160a01b0316906108fc8315029083906000818181858888f19350505050158015611469573d6000803e3d6000fd5b5060068201805461ffff191690555b604051339061148890859061186c565b60405190819003902060048401547f7175967b5ddee4d7986318165167133a8c193aa59b05f411ec131d4f124a3f3d90630100000090046001600160a01b0316156114d357836114d9565b84600501545b60405190815260200160405180910390a3505050565b60008360ff168560ff160361150657506000611563565b8460ff16600114801561151c57508360ff166003145b8061153857508460ff16600214801561153857508360ff166001145b8061155457508460ff16600314801561155457508360ff166002145b15611560575081611563565b50805b949350505050565b634e487b7160e01b600052604160045260246000fd5b600082601f83011261159257600080fd5b813567ffffffffffffffff808211156115ad576115ad61156b565b604051601f8301601f19908116603f011681019082821181831017156115d5576115d561156b565b816040528381528660208588010111156115ee57600080fd5b836020870160208301376000602085830101528094505050505092915050565b60006020828403121561162057600080fd5b813567ffffffffffffffff81111561163757600080fd5b61156384828501611581565b634e487b7160e01b600052602160045260246000fd5b6005811061167757634e487b7160e01b600052602160045260246000fd5b9052565b81516001600160a01b03168152610180810160208301516116a760208401826001600160a01b03169052565b50604083015160408301526060830151606083015260808301516116d0608084018260ff169052565b5060a08301516116e560a084018260ff169052565b5060c08301516116f860c0840182611659565b5060e083015161171360e08401826001600160a01b03169052565b506101008381015190830152610120808401511515908301526101408084015115159083015261016092830151929091019190915290565b6000806040838503121561175e57600080fd5b823567ffffffffffffffff81111561177557600080fd5b61178185828601611581565b95602094909401359450505050565b6001600160a01b038d811682528c81166020830152604082018c9052606082018b905260ff8a81166080840152891660a08301526101808201906117d760c084018a611659565b9690961660e0820152610100810194909452911515610120840152151561014083015261016090910152979650505050505050565b60008060006060848603121561182157600080fd5b833567ffffffffffffffff81111561183857600080fd5b61184486828701611581565b935050602084013560ff8116811461185b57600080fd5b929592945050506040919091013590565b6000825160005b8181101561188d5760208186018101518583015201611873565b506000920191825250919050565b6020808252600c908201526b2737ba103090383630bcb2b960a11b604082015260600190565b80820281158282048414176118e657634e487b7160e01b600052601160045260246000fd5b9291505056fea26469706673582212203c77bcabe395f9f2039af9cadad119c524e9b3a52c1940fec74f87df90ee200664736f6c63430008140033",
  "devdoc": {
    "kind": "dev",
    "methods": {},
    "version": 1
  },
  "userdoc": {
    "kind": "user",
    "methods": {},
    "version": 1
  },
  "storageLayout": {
    "storage": [
      {
        "astId": 38,
        "contract": "contracts/RPSOnline.sol:RPSOnline",
        "label": "games",
        "offset": 0,
        "slot": "0",
        "type": "t_mapping(t_string_memory_ptr,t_struct(Game)33_storage)"
      }
    ],
    "types": {
      "t_address": {
        "encoding": "inplace",
        "label": "address",
        "numberOfBytes": "20"
      },
      "t_bool": {
        "encoding": "inplace",
        "label": "bool",
        "numberOfBytes": "1"
      },
      "t_bytes32": {
        "encoding": "inplace",
        "label": "bytes32",
        "numberOfBytes": "32"
      },
      "t_enum(GameState)7": {
        "encoding": "inplace",
        "label": "enum RPSOnline.GameState",
        "numberOfBytes": "1"
      },
      "t_mapping(t_string_memory_ptr,t_struct(Game)33_storage)": {
        "encoding": "mapping",
        "key": "t_string_memory_ptr",
        "label": "mapping(string => struct RPSOnline.Game)",
        "numberOfBytes": "32",
        "value": "t_struct(Game)33_storage"
      },
      "t_string_memory_ptr": {
        "encoding": "bytes",
        "label": "string",
        "numberOfBytes": "32"
      },
      "t_struct(Game)33_storage": {
        "encoding": "inplace",
        "label": "struct RPSOnline.Game",
        "members": [
          {
            "astId": 9,
            "contract": "contracts/RPSOnline.sol:RPSOnline",
            "label": "player1",
            "offset": 0,
            "slot": "0",
            "type": "t_address"
          },
          {
            "astId": 11,
            "contract": "contracts/RPSOnline.sol:RPSOnline",
            "label": "player2",
            "offset": 0,
            "slot": "1",
            "type": "t_address"
          },
          {
            "astId": 13,
            "contract": "contracts/RPSOnline.sol:RPSOnline",
            "label": "player1Move",
            "offset": 0,
            "slot": "2",
            "type": "t_bytes32"
          },
          {
            "astId": 15,
            "contract": "contracts/RPSOnline.sol:RPSOnline",
            "label": "player2Move",
            "offset": 0,
            "slot": "3",
            "type": "t_bytes32"
          },
          {
            "astId": 17,
            "contract": "contracts/RPSOnline.sol:RPSOnline",
            "label": "revealedMove1",
            "offset": 0,
            "slot": "4",
            "type": "t_uint8"
          },
          {
            "astId": 19,
            "contract": "contracts/RPSOnline.sol:RPSOnline",
            "label": "revealedMove2",
            "offset": 1,
            "slot": "4",
            "type": "t_uint8"
          },
          {
            "astId": 22,
            "contract": "contracts/RPSOnline.sol:RPSOnline",
            "label": "state",
            "offset": 2,
            "slot": "4",
            "type": "t_enum(GameState)7"
          },
          {
            "astId": 24,
            "contract": "contracts/RPSOnline.sol:RPSOnline",
            "label": "winner",
            "offset": 3,
            "slot": "4",
            "type": "t_address"
          },
          {
            "astId": 26,
            "contract": "contracts/RPSOnline.sol:RPSOnline",
            "label": "betAmount",
            "offset": 0,
            "slot": "5",
            "type": "t_uint256"
          },
          {
            "astId": 28,
            "contract": "contracts/RPSOnline.sol:RPSOnline",
            "label": "player1Paid",
            "offset": 0,
            "slot": "6",
            "type": "t_bool"
          },
          {
            "astId": 30,
            "contract": "contracts/RPSOnline.sol:RPSOnline",
            "label": "player2Paid",
            "offset": 1,
            "slot": "6",
            "type": "t_bool"
          },
          {
            "astId": 32,
            "contract": "contracts/RPSOnline.sol:RPSOnline",
            "label": "createdAt",
            "offset": 0,
            "slot": "7",
            "type": "t_uint256"
          }
        ],
        "numberOfBytes": "256"
      },
      "t_uint256": {
        "encoding": "inplace",
        "label": "uint256",
        "numberOfBytes": "32"
      },
      "t_uint8": {
        "encoding": "inplace",
        "label": "uint8",
        "numberOfBytes": "1"
      }
    }
  }
}